:100000000C9434000C943E000C943E000C943E0082
:100010000C943E000C943E000C943E000C943E0068
:100020000C943E000C943E000C943E000C943E0058
:100030000C943E000C943E000C943E000C943E0048
:100040000C943E000C943E000C943E000C943E0038
:100050000C943E000C943E000C943E000C943E0028
:100060000C943E000C943E0011241FBECFEFD8E04C
:10007000DEBFCDBF0E9440000C9468000C940000CD
:100080005098589A8FEF87B991E020E898B988B1D5
:10009000882369F03FEF49E688E1315040408040D5
:1000A000E1F700C0000088B1880F88B9F0CF28B907
:1000B00088B1882359F33FEF49E688E13150404049
:1000C0008040E1F700C0000088B1869588B9F0CF84
:0400D000F894FFCFD2
:00000001FF
