S00B00004C65642E7372656304
S11300000C9434000C943E000C943E000C943E007E
S11300100C943E000C943E000C943E000C943E0064
S11300200C943E000C943E000C943E000C943E0054
S11300300C943E000C943E000C943E000C943E0044
S11300400C943E000C943E000C943E000C943E0034
S11300500C943E000C943E000C943E000C943E0024
S11300600C943E000C943E0011241FBECFEFD8E048
S1130070DEBFCDBF0E9440000C94F7000C9400003A
S1130080259A2D982D9A2FEF8BE49DE121508040E5
S11300909040E1F700C000002D982FEF81EE94E02E
S11300A0215080409040E1F700C000002D9A2FEFCE
S11300B083EC99E0215080409040E1F700C00000BB
S11300C02D982FEF81EE94E0215080409040E1F78D
S11300D000C000002D9A2FEF83EC99E0215080405E
S11300E09040E1F700C000002D982FEF85EA9EE0D4
S11300F0215080409040E1F700C000002D9A2FEF7E
S113010083EC99E0215080409040E1F700C000006A
S11301102D982FEF85EA9EE0215080409040E1F732
S113012000C000002D9A2FEF83EC99E0215080400D
S11301309040E1F700C000002D982FEF81EE94E08D
S1130140215080409040E1F700C000002D9A2FEF2D
S113015083EC99E0215080409040E1F700C000001A
S11301602D982FEF81EE94E0215080409040E1F7EC
S113017000C000002D9A2FEF8BE49DE121508040B8
S11301809040E1F700C000002D982FEF81EE94E03D
S1130190215080409040E1F700C000002D9A2FEFDD
S11301A08BE49DE1215080409040E1F700C00000C5
S11301B02D982FEF81EE94E0215080409040E1F79C
S11301C000C000002D9A2FEF8BE49DE12150804068
S11301D09040E1F700C000002D982FEF81EE94E0ED
S11301E0215080409040E1F700C000004BCFF894CC
S10501F0FFCF3B
S9030000FC
